{
  "contractName": "ERC721",
  "abi": [
    {
      "inputs": [],
      "stateMutability": "nonpayable",
      "type": "constructor"
    },
    {
      "anonymous": false,
      "inputs": [
        {
          "indexed": true,
          "internalType": "address",
          "name": "_owner",
          "type": "address"
        },
        {
          "indexed": true,
          "internalType": "address",
          "name": "_approved",
          "type": "address"
        },
        {
          "indexed": true,
          "internalType": "uint256",
          "name": "_tokenId",
          "type": "uint256"
        }
      ],
      "name": "Approval",
      "type": "event"
    },
    {
      "anonymous": false,
      "inputs": [
        {
          "indexed": true,
          "internalType": "address",
          "name": "_from",
          "type": "address"
        },
        {
          "indexed": true,
          "internalType": "address",
          "name": "_to",
          "type": "address"
        },
        {
          "indexed": true,
          "internalType": "uint256",
          "name": "_tokenId",
          "type": "uint256"
        }
      ],
      "name": "Transfer",
      "type": "event"
    },
    {
      "inputs": [
        {
          "internalType": "bytes4",
          "name": "interfaceID",
          "type": "bytes4"
        }
      ],
      "name": "supportsInterface",
      "outputs": [
        {
          "internalType": "bool",
          "name": "",
          "type": "bool"
        }
      ],
      "stateMutability": "view",
      "type": "function"
    },
    {
      "inputs": [
        {
          "internalType": "address",
          "name": "_owner",
          "type": "address"
        }
      ],
      "name": "balanceOf",
      "outputs": [
        {
          "internalType": "uint256",
          "name": "",
          "type": "uint256"
        }
      ],
      "stateMutability": "view",
      "type": "function"
    },
    {
      "inputs": [
        {
          "internalType": "uint256",
          "name": "_tokenId",
          "type": "uint256"
        }
      ],
      "name": "ownerOf",
      "outputs": [
        {
          "internalType": "address",
          "name": "",
          "type": "address"
        }
      ],
      "stateMutability": "view",
      "type": "function"
    },
    {
      "inputs": [
        {
          "internalType": "address",
          "name": "_from",
          "type": "address"
        },
        {
          "internalType": "address",
          "name": "_to",
          "type": "address"
        },
        {
          "internalType": "uint256",
          "name": "_tokenId",
          "type": "uint256"
        }
      ],
      "name": "transferFrom",
      "outputs": [],
      "stateMutability": "nonpayable",
      "type": "function"
    },
    {
      "inputs": [
        {
          "internalType": "address",
          "name": "_to",
          "type": "address"
        },
        {
          "internalType": "uint256",
          "name": "_tokenId",
          "type": "uint256"
        }
      ],
      "name": "approve",
      "outputs": [],
      "stateMutability": "nonpayable",
      "type": "function"
    },
    {
      "inputs": [
        {
          "internalType": "uint256",
          "name": "tokenId",
          "type": "uint256"
        }
      ],
      "name": "getApproved",
      "outputs": [
        {
          "internalType": "address",
          "name": "",
          "type": "address"
        }
      ],
      "stateMutability": "view",
      "type": "function"
    }
  ],
  "bytecode": "0x60806040523480156200001157600080fd5b50620000437f73813bba42f44928e20db2a5b92cac99671b641f2b84888df9e2d62fb1445082620000be60201b60201c565b620000b87f22c82707ba960a14c7592ffb6b8cfaa073fed0048a84cc7fa41f6b5bd8e7f2e47f3a6eb71757dfc6e784c1459d26270140c2c147d95ca985c80026fc5301c3eca17f8a7e378434598edc36d108689a030cbc9d7d465de4f74c71bae1028eed6a881b1818620000be60201b60201c565b62000218565b63ffffffff60e01b817bffffffffffffffffffffffffffffffffffffffffffffffffffffffff19160362000129576040517f08c379a00000000000000000000000000000000000000000000000000000000081526004016200012090620001f6565b60405180910390fd5b6001600080837bffffffffffffffffffffffffffffffffffffffffffffffffffffffff19167bffffffffffffffffffffffffffffffffffffffffffffffffffffffff1916815260200190815260200160002060006101000a81548160ff02191690831515021790555050565b600082825260208201905092915050565b7f496e76616c696420696e74657266616365207265717565737400000000000000600082015250565b6000620001de60198362000195565b9150620001eb82620001a6565b602082019050919050565b600060208201905081810360008301526200021181620001cf565b9050919050565b61106280620002286000396000f3fe608060405234801561001057600080fd5b50600436106100625760003560e01c806301ffc9a714610067578063081812fc14610097578063095ea7b3146100c757806323b872dd146100e35780636352211e146100ff57806370a082311461012f575b600080fd5b610081600480360381019061007c9190610952565b61015f565b60405161008e919061099a565b60405180910390f35b6100b160048036038101906100ac91906109eb565b6101c6565b6040516100be9190610a59565b60405180910390f35b6100e160048036038101906100dc9190610aa0565b61024b565b005b6100fd60048036038101906100f89190610ae0565b6103e6565b005b610119600480360381019061011491906109eb565b610409565b6040516101269190610a59565b60405180910390f35b61014960048036038101906101449190610b33565b6104ba565b6040516101569190610b6f565b60405180910390f35b6000806000837bffffffffffffffffffffffffffffffffffffffffffffffffffffffff19167bffffffffffffffffffffffffffffffffffffffffffffffffffffffff1916815260200190815260200160002060009054906101000a900460ff169050919050565b60006101d182610571565b610210576040517f08c379a000000000000000000000000000000000000000000000000000000000815260040161020790610c0d565b60405180910390fd5b6003600083815260200190815260200160002060009054906101000a900473ffffffffffffffffffffffffffffffffffffffff169050919050565b600061025682610409565b90508073ffffffffffffffffffffffffffffffffffffffff168373ffffffffffffffffffffffffffffffffffffffff16036102c6576040517f08c379a00000000000000000000000000000000000000000000000000000000081526004016102bd90610c9f565b60405180910390fd5b8073ffffffffffffffffffffffffffffffffffffffff163373ffffffffffffffffffffffffffffffffffffffff1614610334576040517f08c379a000000000000000000000000000000000000000000000000000000000815260040161032b90610d31565b60405180910390fd5b826003600084815260200190815260200160002060006101000a81548173ffffffffffffffffffffffffffffffffffffffff021916908373ffffffffffffffffffffffffffffffffffffffff160217905550818373ffffffffffffffffffffffffffffffffffffffff168273ffffffffffffffffffffffffffffffffffffffff167f8c5be1e5ebec7d5bd14f71427d1e84f3dd0314c0f7b2291e5b200ac8c7c3b92560405160405180910390a4505050565b6103f033826105e3565b6103f957600080fd5b6104048383836106b0565b505050565b6000806001600084815260200190815260200160002060009054906101000a900473ffffffffffffffffffffffffffffffffffffffff169050600073ffffffffffffffffffffffffffffffffffffffff168173ffffffffffffffffffffffffffffffffffffffff16036104b1576040517f08c379a00000000000000000000000000000000000000000000000000000000081526004016104a890610dc3565b60405180910390fd5b80915050919050565b60008073ffffffffffffffffffffffffffffffffffffffff168273ffffffffffffffffffffffffffffffffffffffff160361052a576040517f08c379a000000000000000000000000000000000000000000000000000000000815260040161052190610dc3565b60405180910390fd5b600260008373ffffffffffffffffffffffffffffffffffffffff1673ffffffffffffffffffffffffffffffffffffffff168152602001908152602001600020549050919050565b6000806001600084815260200190815260200160002060009054906101000a900473ffffffffffffffffffffffffffffffffffffffff169050600073ffffffffffffffffffffffffffffffffffffffff168173ffffffffffffffffffffffffffffffffffffffff161415915050919050565b60006105ee82610571565b61062d576040517f08c379a000000000000000000000000000000000000000000000000000000000815260040161062490610e2f565b60405180910390fd5b600061063883610409565b90508073ffffffffffffffffffffffffffffffffffffffff168473ffffffffffffffffffffffffffffffffffffffff1614806106a757508373ffffffffffffffffffffffffffffffffffffffff1661068f846101c6565b73ffffffffffffffffffffffffffffffffffffffff16145b91505092915050565b600073ffffffffffffffffffffffffffffffffffffffff168273ffffffffffffffffffffffffffffffffffffffff160361071f576040517f08c379a000000000000000000000000000000000000000000000000000000000815260040161071690610ec1565b60405180910390fd5b8273ffffffffffffffffffffffffffffffffffffffff1661073f82610409565b73ffffffffffffffffffffffffffffffffffffffff1614610795576040517f08c379a000000000000000000000000000000000000000000000000000000000815260040161078c90610f53565b60405180910390fd5b6001600260008573ffffffffffffffffffffffffffffffffffffffff1673ffffffffffffffffffffffffffffffffffffffff16815260200190815260200160002060008282546107e59190610fa2565b925050819055506001600260008473ffffffffffffffffffffffffffffffffffffffff1673ffffffffffffffffffffffffffffffffffffffff168152602001908152602001600020600082825461083c9190610fd6565b92505081905550816001600083815260200190815260200160002060006101000a81548173ffffffffffffffffffffffffffffffffffffffff021916908373ffffffffffffffffffffffffffffffffffffffff160217905550808273ffffffffffffffffffffffffffffffffffffffff168473ffffffffffffffffffffffffffffffffffffffff167fddf252ad1be2c89b69c2b068fc378daa952ba7f163c4a11628f55a4df523b3ef60405160405180910390a4505050565b600080fd5b60007fffffffff0000000000000000000000000000000000000000000000000000000082169050919050565b61092f816108fa565b811461093a57600080fd5b50565b60008135905061094c81610926565b92915050565b600060208284031215610968576109676108f5565b5b60006109768482850161093d565b91505092915050565b60008115159050919050565b6109948161097f565b82525050565b60006020820190506109af600083018461098b565b92915050565b6000819050919050565b6109c8816109b5565b81146109d357600080fd5b50565b6000813590506109e5816109bf565b92915050565b600060208284031215610a0157610a006108f5565b5b6000610a0f848285016109d6565b91505092915050565b600073ffffffffffffffffffffffffffffffffffffffff82169050919050565b6000610a4382610a18565b9050919050565b610a5381610a38565b82525050565b6000602082019050610a6e6000830184610a4a565b92915050565b610a7d81610a38565b8114610a8857600080fd5b50565b600081359050610a9a81610a74565b92915050565b60008060408385031215610ab757610ab66108f5565b5b6000610ac585828601610a8b565b9250506020610ad6858286016109d6565b9150509250929050565b600080600060608486031215610af957610af86108f5565b5b6000610b0786828701610a8b565b9350506020610b1886828701610a8b565b9250506040610b29868287016109d6565b9150509250925092565b600060208284031215610b4957610b486108f5565b5b6000610b5784828501610a8b565b91505092915050565b610b69816109b5565b82525050565b6000602082019050610b846000830184610b60565b92915050565b600082825260208201905092915050565b7f4552433732313a20617070726f76656420717565727920666f72206e6f6e657860008201527f697374656e7420746f6b656e0000000000000000000000000000000000000000602082015250565b6000610bf7602c83610b8a565b9150610c0282610b9b565b604082019050919050565b60006020820190508181036000830152610c2681610bea565b9050919050565b7f4572726f72202d20617070726f76616c20746f207468652063757272656e742060008201527f6f776e6572000000000000000000000000000000000000000000000000000000602082015250565b6000610c89602583610b8a565b9150610c9482610c2d565b604082019050919050565b60006020820190508181036000830152610cb881610c7c565b9050919050565b7f43757272656e742063616c6c6572206973206e6f7420746865206f776e65722060008201527f6f662074686520746f6b656e0000000000000000000000000000000000000000602082015250565b6000610d1b602c83610b8a565b9150610d2682610cbf565b604082019050919050565b60006020820190508181036000830152610d4a81610d0e565b9050919050565b7f6f776e657220717565727920666f72206e6f6e2d6578697374696e6720746f6b60008201527f656e000000000000000000000000000000000000000000000000000000000000602082015250565b6000610dad602283610b8a565b9150610db882610d51565b604082019050919050565b60006020820190508181036000830152610ddc81610da0565b9050919050565b7f546f6b656e20646f6573206e6f74206578697374000000000000000000000000600082015250565b6000610e19601483610b8a565b9150610e2482610de3565b602082019050919050565b60006020820190508181036000830152610e4881610e0c565b9050919050565b7f4572726f72202d20455243373231205472616e7366657220746f20746865207a60008201527f65726f2061646472657373000000000000000000000000000000000000000000602082015250565b6000610eab602b83610b8a565b9150610eb682610e4f565b604082019050919050565b60006020820190508181036000830152610eda81610e9e565b9050919050565b7f547279696e6720746f207472616e73666572206120746f6b656e20746865206160008201527f64647265737320646f6573206e6f74206973206f776e65720000000000000000602082015250565b6000610f3d603883610b8a565b9150610f4882610ee1565b604082019050919050565b60006020820190508181036000830152610f6c81610f30565b9050919050565b7f4e487b7100000000000000000000000000000000000000000000000000000000600052601160045260246000fd5b6000610fad826109b5565b9150610fb8836109b5565b925082821015610fcb57610fca610f73565b5b828203905092915050565b6000610fe1826109b5565b9150610fec836109b5565b9250827fffffffffffffffffffffffffffffffffffffffffffffffffffffffffffffffff0382111561102157611020610f73565b5b82820190509291505056fea264697066735822122095ab1060f3316ec2040d1e0da390367a62e29f8486b3cab57c210be8db14f70a64736f6c634300080e0033",
  "immutableReferences": {},
  "source": "// SPDX-License-Identifier: MIT\r\npragma solidity ^0.8.0;\r\n\r\nimport \"./ERC165.sol\";\r\nimport \"./interfaces/IERC721.sol\";\r\n\r\n/*\r\n    Building the minting function:\r\n        a-nft to point to an address\r\n        b-keep track of tokens id\r\n        c-keep track of token owner addresses to tokens id\r\n        d-keep track of how many tokens an owner address has\r\n        e-create an event that emits a transfer log - contract addres where \r\n         it is being minted to, the id\r\n*/\r\n\r\ncontract ERC721 is ERC165, IERC721 {\r\n    // mapping from token id to the owner\r\n    mapping(uint256 => address) private _tokenOwner;\r\n    // mapping from owner to number of tokens owned\r\n    mapping(address => uint256) private _ownedTokensCount;\r\n    // mapping from tokenId to approved addresses\r\n    mapping(uint256 => address) private _tokenApprovals;\r\n\r\n    constructor() {\r\n        _registerInterface(\r\n            bytes4(\r\n                keccak256(\"balanceOf(bytes4)\") ^\r\n                    keccak256(\"ownerOf(bytes4)\") ^\r\n                    keccak256(\"transferFrom(bytes4)\")\r\n            )\r\n        );\r\n    }\r\n\r\n    function balanceOf(address _owner) public view override returns (uint256) {\r\n        require(_owner != address(0), \"owner query for non-existing token\");\r\n        return _ownedTokensCount[_owner];\r\n    }\r\n\r\n    function ownerOf(uint256 _tokenId) public view override returns (address) {\r\n        address owner = _tokenOwner[_tokenId];\r\n        require(owner != address(0), \"owner query for non-existing token\");\r\n        return owner;\r\n    }\r\n\r\n    function _exists(uint256 tokenId) internal view returns (bool) {\r\n        //setting the address of nft owner  to check the mapping\r\n        // of the address from tokenowner at the tokenId\r\n        address owner = _tokenOwner[tokenId];\r\n        // return thruthiness the address is not zero\r\n        return owner != address(0);\r\n    }\r\n\r\n    function _mint(address to, uint256 tokenId) internal virtual {\r\n        // requires that the address is not zero\r\n        require(to != address(0), \"ERC721: minting to the zero address.\");\r\n        // requires that the token does not already exists\r\n        require(!_exists(tokenId), \"ERC721: token already minted.\");\r\n        // we are adding a new addres with the token ID for minting\r\n        _tokenOwner[tokenId] = to;\r\n        // keeping track of each address that is minting and add to the count\r\n        _ownedTokensCount[to] += 1;\r\n\r\n        emit Transfer(address(0), to, tokenId);\r\n    }\r\n\r\n    function _transferFrom(\r\n        address _from,\r\n        address _to,\r\n        uint256 _tokenId\r\n    ) internal {\r\n        require(\r\n            _to != address(0),\r\n            \"Error - ERC721 Transfer to the zero address\"\r\n        );\r\n        require(\r\n            ownerOf(_tokenId) == _from,\r\n            \"Trying to transfer a token the address does not is owner\"\r\n        );\r\n        _ownedTokensCount[_from] -= 1;\r\n        _ownedTokensCount[_to] += 1;\r\n        _tokenOwner[_tokenId] = _to;\r\n        emit Transfer(_from, _to, _tokenId);\r\n    }\r\n\r\n    function transferFrom(\r\n        address _from,\r\n        address _to,\r\n        uint256 _tokenId\r\n    ) public override {\r\n        require(isApprovedOrOwner(msg.sender, _tokenId));\r\n        _transferFrom(_from, _to, _tokenId);\r\n    }\r\n\r\n    function approve(address _to, uint256 _tokenId) public {\r\n        address owner = ownerOf(_tokenId);\r\n        require(_to != owner, \"Error - approval to the current owner\");\r\n        require(\r\n            msg.sender == owner,\r\n            \"Current caller is not the owner of the token\"\r\n        );\r\n        _tokenApprovals[_tokenId] = _to;\r\n        emit Approval(owner, _to, _tokenId);\r\n    }\r\n\r\n    function getApproved(uint256 tokenId)\r\n        public\r\n        view\r\n        virtual\r\n        returns (address)\r\n    {\r\n        require(\r\n            _exists(tokenId),\r\n            \"ERC721: approved query for nonexistent token\"\r\n        );\r\n        return _tokenApprovals[tokenId];\r\n    }\r\n\r\n    function isApprovedOrOwner(address _spender, uint256 _tokenId)\r\n        internal\r\n        view\r\n        returns (bool)\r\n    {\r\n        require(_exists(_tokenId), \"Token does not exist\");\r\n        address owner = ownerOf(_tokenId);\r\n        return (_spender == owner || getApproved(_tokenId) == _spender);\r\n    }\r\n}\r\n",
  "sourcePath": "C:\\Users\\paulo\\Desktop\\Web Development\\Proyectos\\Nft Marketplace\\src\\contracts\\ERC721.sol",
  "compiler": {
    "name": "solc",
    "version": "0.8.14+commit.80d49f37.Emscripten.clang"
  },
  "schemaVersion": "3.4.4",
  "updatedAt": "2022-05-19T17:14:22.762Z",
  "devdoc": {
    "kind": "dev",
    "methods": {
      "supportsInterface(bytes4)": {
        "details": "Interface identification is specified in ERC-165. This function  uses less than 30,000 gas.",
        "params": {
          "interfaceID": "The interface identifier, as specified in ERC-165"
        },
        "returns": {
          "_0": "`true` if the contract implements `interfaceID` and  `interfaceID` is not 0xffffffff, `false` otherwise"
        }
      }
    },
    "version": 1
  },
  "userdoc": {
    "kind": "user",
    "methods": {
      "supportsInterface(bytes4)": {
        "notice": "Query if a contract implements an interface"
      }
    },
    "version": 1
  }
}