{
  "contractName": "ManifestNFT",
  "abi": [
    {
      "inputs": [],
      "stateMutability": "nonpayable",
      "type": "constructor"
    },
    {
      "anonymous": false,
      "inputs": [
        {
          "indexed": true,
          "internalType": "address",
          "name": "_owner",
          "type": "address"
        },
        {
          "indexed": true,
          "internalType": "address",
          "name": "_approved",
          "type": "address"
        },
        {
          "indexed": true,
          "internalType": "uint256",
          "name": "_tokenId",
          "type": "uint256"
        }
      ],
      "name": "Approval",
      "type": "event"
    },
    {
      "anonymous": false,
      "inputs": [
        {
          "indexed": true,
          "internalType": "address",
          "name": "_from",
          "type": "address"
        },
        {
          "indexed": true,
          "internalType": "address",
          "name": "_to",
          "type": "address"
        },
        {
          "indexed": true,
          "internalType": "uint256",
          "name": "_tokenId",
          "type": "uint256"
        }
      ],
      "name": "Transfer",
      "type": "event"
    },
    {
      "inputs": [
        {
          "internalType": "address",
          "name": "_to",
          "type": "address"
        },
        {
          "internalType": "uint256",
          "name": "_tokenId",
          "type": "uint256"
        }
      ],
      "name": "approve",
      "outputs": [],
      "stateMutability": "nonpayable",
      "type": "function"
    },
    {
      "inputs": [
        {
          "internalType": "address",
          "name": "_owner",
          "type": "address"
        }
      ],
      "name": "balanceOf",
      "outputs": [
        {
          "internalType": "uint256",
          "name": "",
          "type": "uint256"
        }
      ],
      "stateMutability": "view",
      "type": "function",
      "constant": true
    },
    {
      "inputs": [
        {
          "internalType": "uint256",
          "name": "tokenId",
          "type": "uint256"
        }
      ],
      "name": "getApproved",
      "outputs": [
        {
          "internalType": "address",
          "name": "",
          "type": "address"
        }
      ],
      "stateMutability": "view",
      "type": "function",
      "constant": true
    },
    {
      "inputs": [
        {
          "internalType": "uint256",
          "name": "",
          "type": "uint256"
        }
      ],
      "name": "mnfstNFTs",
      "outputs": [
        {
          "internalType": "string",
          "name": "",
          "type": "string"
        }
      ],
      "stateMutability": "view",
      "type": "function",
      "constant": true
    },
    {
      "inputs": [],
      "name": "name",
      "outputs": [
        {
          "internalType": "string",
          "name": "",
          "type": "string"
        }
      ],
      "stateMutability": "view",
      "type": "function",
      "constant": true
    },
    {
      "inputs": [
        {
          "internalType": "uint256",
          "name": "_tokenId",
          "type": "uint256"
        }
      ],
      "name": "ownerOf",
      "outputs": [
        {
          "internalType": "address",
          "name": "",
          "type": "address"
        }
      ],
      "stateMutability": "view",
      "type": "function",
      "constant": true
    },
    {
      "inputs": [
        {
          "internalType": "bytes4",
          "name": "interfaceID",
          "type": "bytes4"
        }
      ],
      "name": "supportsInterface",
      "outputs": [
        {
          "internalType": "bool",
          "name": "",
          "type": "bool"
        }
      ],
      "stateMutability": "view",
      "type": "function",
      "constant": true
    },
    {
      "inputs": [],
      "name": "symbol",
      "outputs": [
        {
          "internalType": "string",
          "name": "",
          "type": "string"
        }
      ],
      "stateMutability": "view",
      "type": "function",
      "constant": true
    },
    {
      "inputs": [
        {
          "internalType": "uint256",
          "name": "index",
          "type": "uint256"
        }
      ],
      "name": "tokenByIndex",
      "outputs": [
        {
          "internalType": "uint256",
          "name": "",
          "type": "uint256"
        }
      ],
      "stateMutability": "view",
      "type": "function",
      "constant": true
    },
    {
      "inputs": [
        {
          "internalType": "address",
          "name": "owner",
          "type": "address"
        },
        {
          "internalType": "uint256",
          "name": "index",
          "type": "uint256"
        }
      ],
      "name": "tokenOfOwnerByIndex",
      "outputs": [
        {
          "internalType": "uint256",
          "name": "",
          "type": "uint256"
        }
      ],
      "stateMutability": "view",
      "type": "function",
      "constant": true
    },
    {
      "inputs": [],
      "name": "totalSupply",
      "outputs": [
        {
          "internalType": "uint256",
          "name": "",
          "type": "uint256"
        }
      ],
      "stateMutability": "view",
      "type": "function",
      "constant": true
    },
    {
      "inputs": [
        {
          "internalType": "address",
          "name": "_from",
          "type": "address"
        },
        {
          "internalType": "address",
          "name": "_to",
          "type": "address"
        },
        {
          "internalType": "uint256",
          "name": "_tokenId",
          "type": "uint256"
        }
      ],
      "name": "transferFrom",
      "outputs": [],
      "stateMutability": "nonpayable",
      "type": "function"
    },
    {
      "inputs": [
        {
          "internalType": "string",
          "name": "_mnfstNFT",
          "type": "string"
        }
      ],
      "name": "mint",
      "outputs": [],
      "stateMutability": "nonpayable",
      "type": "function"
    }
  ],
  "bytecode": "0x60806040523480156200001157600080fd5b506040518060400160405280600b81526020017f6d616e69666573744172740000000000000000000000000000000000000000008152506040518060400160405280600881526020017f4d4e4653544152540000000000000000000000000000000000000000000000008152508181620000b17f73813bba42f44928e20db2a5b92cac99671b641f2b84888df9e2d62fb14450826200022a60201b60201c565b620001047f13b182f4c0e5b2efbac0efe6cf6d756c8b89f4b79c5707a043ed9ea740574ee97f7feaf19471f34a12a7eaf32d5f3090aa2260ea8624dc8a138e74e0bf0f623076186200022a60201b60201c565b81600190805190602001906200011c92919062000301565b5080600290805190602001906200013592919062000301565b505050620001ad7f22c82707ba960a14c7592ffb6b8cfaa073fed0048a84cc7fa41f6b5bd8e7f2e47f3a6eb71757dfc6e784c1459d26270140c2c147d95ca985c80026fc5301c3eca17f8a7e378434598edc36d108689a030cbc9d7d465de4f74c71bae1028eed6a881b18186200022a60201b60201c565b620002227f8230223f691b981717299fae9549350a0d894555723531f02108b1f522c1a7977f6da5e1284143cdd2d15038a59bde3be031250f00291d64494c12d967b3a4e0c37fc53637662700e6c65104059db8bba34439e0c32483ab7c34e3ccae52c739549518186200022a60201b60201c565b505062000498565b63ffffffff60e01b817bffffffffffffffffffffffffffffffffffffffffffffffffffffffff19160362000295576040517f08c379a00000000000000000000000000000000000000000000000000000000081526004016200028c9062000412565b60405180910390fd5b6001600080837bffffffffffffffffffffffffffffffffffffffffffffffffffffffff19167bffffffffffffffffffffffffffffffffffffffffffffffffffffffff1916815260200190815260200160002060006101000a81548160ff02191690831515021790555050565b8280546200030f9062000463565b90600052602060002090601f0160209004810192826200033357600085556200037f565b82601f106200034e57805160ff19168380011785556200037f565b828001600101855582156200037f579182015b828111156200037e57825182559160200191906001019062000361565b5b5090506200038e919062000392565b5090565b5b80821115620003ad57600081600090555060010162000393565b5090565b600082825260208201905092915050565b7f496e76616c696420696e74657266616365207265717565737400000000000000600082015250565b6000620003fa601983620003b1565b91506200040782620003c2565b602082019050919050565b600060208201905081810360008301526200042d81620003eb565b9050919050565b7f4e487b7100000000000000000000000000000000000000000000000000000000600052602260045260246000fd5b600060028204905060018216806200047c57607f821691505b60208210810362000492576200049162000434565b5b50919050565b611ec380620004a86000396000f3fe608060405234801561001057600080fd5b50600436106100cf5760003560e01c80632f745c591161008c57806370a082311161006657806370a082311461023857806395d89b4114610268578063d85d3d2714610286578063f4307c45146102a2576100cf565b80632f745c59146101a85780634f6ccce7146101d85780636352211e14610208576100cf565b806301ffc9a7146100d457806306fdde0314610104578063081812fc14610122578063095ea7b31461015257806318160ddd1461016e57806323b872dd1461018c575b600080fd5b6100ee60048036038101906100e99190611267565b6102d2565b6040516100fb91906112af565b60405180910390f35b61010c610339565b6040516101199190611363565b60405180910390f35b61013c600480360381019061013791906113bb565b6103cb565b6040516101499190611429565b60405180910390f35b61016c60048036038101906101679190611470565b610450565b005b6101766105eb565b60405161018391906114bf565b60405180910390f35b6101a660048036038101906101a191906114da565b6105f8565b005b6101c260048036038101906101bd9190611470565b61061b565b6040516101cf91906114bf565b60405180910390f35b6101f260048036038101906101ed91906113bb565b6106cb565b6040516101ff91906114bf565b60405180910390f35b610222600480360381019061021d91906113bb565b61073c565b60405161022f9190611429565b60405180910390f35b610252600480360381019061024d919061152d565b6107ed565b60405161025f91906114bf565b60405180910390f35b6102706108a4565b60405161027d9190611363565b60405180910390f35b6102a0600480360381019061029b919061168f565b610936565b005b6102bc60048036038101906102b791906113bb565b610a39565b6040516102c99190611363565b60405180910390f35b6000806000837bffffffffffffffffffffffffffffffffffffffffffffffffffffffff19167bffffffffffffffffffffffffffffffffffffffffffffffffffffffff1916815260200190815260200160002060009054906101000a900460ff169050919050565b60606001805461034890611707565b80601f016020809104026020016040519081016040528092919081815260200182805461037490611707565b80156103c15780601f10610396576101008083540402835291602001916103c1565b820191906000526020600020905b8154815290600101906020018083116103a457829003601f168201915b5050505050905090565b60006103d682610ae5565b610415576040517f08c379a000000000000000000000000000000000000000000000000000000000815260040161040c906117aa565b60405180910390fd5b6005600083815260200190815260200160002060009054906101000a900473ffffffffffffffffffffffffffffffffffffffff169050919050565b600061045b8261073c565b90508073ffffffffffffffffffffffffffffffffffffffff168373ffffffffffffffffffffffffffffffffffffffff16036104cb576040517f08c379a00000000000000000000000000000000000000000000000000000000081526004016104c29061183c565b60405180910390fd5b8073ffffffffffffffffffffffffffffffffffffffff163373ffffffffffffffffffffffffffffffffffffffff1614610539576040517f08c379a0000000000000000000000000000000000000000000000000000000008152600401610530906118ce565b60405180910390fd5b826005600084815260200190815260200160002060006101000a81548173ffffffffffffffffffffffffffffffffffffffff021916908373ffffffffffffffffffffffffffffffffffffffff160217905550818373ffffffffffffffffffffffffffffffffffffffff168273ffffffffffffffffffffffffffffffffffffffff167f8c5be1e5ebec7d5bd14f71427d1e84f3dd0314c0f7b2291e5b200ac8c7c3b92560405160405180910390a4505050565b6000600680549050905090565b6106023382610b57565b61060b57600080fd5b610616838383610c24565b505050565b6000610626836107ed565b8210610667576040517f08c379a000000000000000000000000000000000000000000000000000000000815260040161065e9061193a565b60405180910390fd5b600860008473ffffffffffffffffffffffffffffffffffffffff1673ffffffffffffffffffffffffffffffffffffffff16815260200190815260200160002082815481106106b8576106b761195a565b5b9060005260206000200154905092915050565b60006106d56105eb565b8210610716576040517f08c379a000000000000000000000000000000000000000000000000000000000815260040161070d906119d5565b60405180910390fd5b6006828154811061072a5761072961195a565b5b90600052602060002001549050919050565b6000806003600084815260200190815260200160002060009054906101000a900473ffffffffffffffffffffffffffffffffffffffff169050600073ffffffffffffffffffffffffffffffffffffffff168173ffffffffffffffffffffffffffffffffffffffff16036107e4576040517f08c379a00000000000000000000000000000000000000000000000000000000081526004016107db90611a67565b60405180910390fd5b80915050919050565b60008073ffffffffffffffffffffffffffffffffffffffff168273ffffffffffffffffffffffffffffffffffffffff160361085d576040517f08c379a000000000000000000000000000000000000000000000000000000000815260040161085490611a67565b60405180910390fd5b600460008373ffffffffffffffffffffffffffffffffffffffff1673ffffffffffffffffffffffffffffffffffffffff168152602001908152602001600020549050919050565b6060600280546108b390611707565b80601f01602080910402602001604051908101604052809291908181526020018280546108df90611707565b801561092c5780601f106109015761010080835404028352916020019161092c565b820191906000526020600020905b81548152906001019060200180831161090f57829003601f168201915b5050505050905090565b600b816040516109469190611ac3565b908152602001604051809103902060009054906101000a900460ff16156109a2576040517f08c379a000000000000000000000000000000000000000000000000000000000815260040161099990611b26565b60405180910390fd5b600a819080600181540180825580915050600190039060005260206000200160009091909190915090805190602001906109dd929190611158565b5060006001600a805490506109f29190611b75565b90506109fe3382610e69565b6001600b83604051610a109190611ac3565b908152602001604051809103902060006101000a81548160ff0219169083151502179055505050565b600a8181548110610a4957600080fd5b906000526020600020016000915090508054610a6490611707565b80601f0160208091040260200160405190810160405280929190818152602001828054610a9090611707565b8015610add5780601f10610ab257610100808354040283529160200191610add565b820191906000526020600020905b815481529060010190602001808311610ac057829003601f168201915b505050505081565b6000806003600084815260200190815260200160002060009054906101000a900473ffffffffffffffffffffffffffffffffffffffff169050600073ffffffffffffffffffffffffffffffffffffffff168173ffffffffffffffffffffffffffffffffffffffff161415915050919050565b6000610b6282610ae5565b610ba1576040517f08c379a0000000000000000000000000000000000000000000000000000000008152600401610b9890611bf5565b60405180910390fd5b6000610bac8361073c565b90508073ffffffffffffffffffffffffffffffffffffffff168473ffffffffffffffffffffffffffffffffffffffff161480610c1b57508373ffffffffffffffffffffffffffffffffffffffff16610c03846103cb565b73ffffffffffffffffffffffffffffffffffffffff16145b91505092915050565b600073ffffffffffffffffffffffffffffffffffffffff168273ffffffffffffffffffffffffffffffffffffffff1603610c93576040517f08c379a0000000000000000000000000000000000000000000000000000000008152600401610c8a90611c87565b60405180910390fd5b8273ffffffffffffffffffffffffffffffffffffffff16610cb38261073c565b73ffffffffffffffffffffffffffffffffffffffff1614610d09576040517f08c379a0000000000000000000000000000000000000000000000000000000008152600401610d0090611d19565b60405180910390fd5b6001600460008573ffffffffffffffffffffffffffffffffffffffff1673ffffffffffffffffffffffffffffffffffffffff1681526020019081526020016000206000828254610d599190611b75565b925050819055506001600460008473ffffffffffffffffffffffffffffffffffffffff1673ffffffffffffffffffffffffffffffffffffffff1681526020019081526020016000206000828254610db09190611d39565b92505081905550816003600083815260200190815260200160002060006101000a81548173ffffffffffffffffffffffffffffffffffffffff021916908373ffffffffffffffffffffffffffffffffffffffff160217905550808273ffffffffffffffffffffffffffffffffffffffff168473ffffffffffffffffffffffffffffffffffffffff167fddf252ad1be2c89b69c2b068fc378daa952ba7f163c4a11628f55a4df523b3ef60405160405180910390a4505050565b610e738282610e8a565b610e7c8161104b565b610e868282611094565b5050565b600073ffffffffffffffffffffffffffffffffffffffff168273ffffffffffffffffffffffffffffffffffffffff1603610ef9576040517f08c379a0000000000000000000000000000000000000000000000000000000008152600401610ef090611e01565b60405180910390fd5b610f0281610ae5565b15610f42576040517f08c379a0000000000000000000000000000000000000000000000000000000008152600401610f3990611e6d565b60405180910390fd5b816003600083815260200190815260200160002060006101000a81548173ffffffffffffffffffffffffffffffffffffffff021916908373ffffffffffffffffffffffffffffffffffffffff1602179055506001600460008473ffffffffffffffffffffffffffffffffffffffff1673ffffffffffffffffffffffffffffffffffffffff1681526020019081526020016000206000828254610fe49190611d39565b92505081905550808273ffffffffffffffffffffffffffffffffffffffff16600073ffffffffffffffffffffffffffffffffffffffff167fddf252ad1be2c89b69c2b068fc378daa952ba7f163c4a11628f55a4df523b3ef60405160405180910390a45050565b6006805490506007600083815260200190815260200160002081905550600681908060018154018082558091505060019003906000526020600020016000909190919091505550565b600860008373ffffffffffffffffffffffffffffffffffffffff1673ffffffffffffffffffffffffffffffffffffffff168152602001908152602001600020819080600181540180825580915050600190039060005260206000200160009091909190915055600860008373ffffffffffffffffffffffffffffffffffffffff1673ffffffffffffffffffffffffffffffffffffffff1681526020019081526020016000208054905060096000838152602001908152602001600020819055505050565b82805461116490611707565b90600052602060002090601f01602090048101928261118657600085556111cd565b82601f1061119f57805160ff19168380011785556111cd565b828001600101855582156111cd579182015b828111156111cc5782518255916020019190600101906111b1565b5b5090506111da91906111de565b5090565b5b808211156111f75760008160009055506001016111df565b5090565b6000604051905090565b600080fd5b600080fd5b60007fffffffff0000000000000000000000000000000000000000000000000000000082169050919050565b6112448161120f565b811461124f57600080fd5b50565b6000813590506112618161123b565b92915050565b60006020828403121561127d5761127c611205565b5b600061128b84828501611252565b91505092915050565b60008115159050919050565b6112a981611294565b82525050565b60006020820190506112c460008301846112a0565b92915050565b600081519050919050565b600082825260208201905092915050565b60005b838110156113045780820151818401526020810190506112e9565b83811115611313576000848401525b50505050565b6000601f19601f8301169050919050565b6000611335826112ca565b61133f81856112d5565b935061134f8185602086016112e6565b61135881611319565b840191505092915050565b6000602082019050818103600083015261137d818461132a565b905092915050565b6000819050919050565b61139881611385565b81146113a357600080fd5b50565b6000813590506113b58161138f565b92915050565b6000602082840312156113d1576113d0611205565b5b60006113df848285016113a6565b91505092915050565b600073ffffffffffffffffffffffffffffffffffffffff82169050919050565b6000611413826113e8565b9050919050565b61142381611408565b82525050565b600060208201905061143e600083018461141a565b92915050565b61144d81611408565b811461145857600080fd5b50565b60008135905061146a81611444565b92915050565b6000806040838503121561148757611486611205565b5b60006114958582860161145b565b92505060206114a6858286016113a6565b9150509250929050565b6114b981611385565b82525050565b60006020820190506114d460008301846114b0565b92915050565b6000806000606084860312156114f3576114f2611205565b5b60006115018682870161145b565b93505060206115128682870161145b565b9250506040611523868287016113a6565b9150509250925092565b60006020828403121561154357611542611205565b5b60006115518482850161145b565b91505092915050565b600080fd5b600080fd5b7f4e487b7100000000000000000000000000000000000000000000000000000000600052604160045260246000fd5b61159c82611319565b810181811067ffffffffffffffff821117156115bb576115ba611564565b5b80604052505050565b60006115ce6111fb565b90506115da8282611593565b919050565b600067ffffffffffffffff8211156115fa576115f9611564565b5b61160382611319565b9050602081019050919050565b82818337600083830152505050565b600061163261162d846115df565b6115c4565b90508281526020810184848401111561164e5761164d61155f565b5b611659848285611610565b509392505050565b600082601f8301126116765761167561155a565b5b813561168684826020860161161f565b91505092915050565b6000602082840312156116a5576116a4611205565b5b600082013567ffffffffffffffff8111156116c3576116c261120a565b5b6116cf84828501611661565b91505092915050565b7f4e487b7100000000000000000000000000000000000000000000000000000000600052602260045260246000fd5b6000600282049050600182168061171f57607f821691505b602082108103611732576117316116d8565b5b50919050565b7f4552433732313a20617070726f76656420717565727920666f72206e6f6e657860008201527f697374656e7420746f6b656e0000000000000000000000000000000000000000602082015250565b6000611794602c836112d5565b915061179f82611738565b604082019050919050565b600060208201905081810360008301526117c381611787565b9050919050565b7f4572726f72202d20617070726f76616c20746f207468652063757272656e742060008201527f6f776e6572000000000000000000000000000000000000000000000000000000602082015250565b60006118266025836112d5565b9150611831826117ca565b604082019050919050565b6000602082019050818103600083015261185581611819565b9050919050565b7f43757272656e742063616c6c6572206973206e6f7420746865206f776e65722060008201527f6f662074686520746f6b656e0000000000000000000000000000000000000000602082015250565b60006118b8602c836112d5565b91506118c38261185c565b604082019050919050565b600060208201905081810360008301526118e7816118ab565b9050919050565b7f4f776e657220696e646578206973206f7574206f6620626f75646e7321000000600082015250565b6000611924601d836112d5565b915061192f826118ee565b602082019050919050565b6000602082019050818103600083015261195381611917565b9050919050565b7f4e487b7100000000000000000000000000000000000000000000000000000000600052603260045260246000fd5b7f476c6f62616c20696e646578206973206f7574206f6620626f756e6473210000600082015250565b60006119bf601e836112d5565b91506119ca82611989565b602082019050919050565b600060208201905081810360008301526119ee816119b2565b9050919050565b7f6f776e657220717565727920666f72206e6f6e2d6578697374696e6720746f6b60008201527f656e000000000000000000000000000000000000000000000000000000000000602082015250565b6000611a516022836112d5565b9150611a5c826119f5565b604082019050919050565b60006020820190508181036000830152611a8081611a44565b9050919050565b600081905092915050565b6000611a9d826112ca565b611aa78185611a87565b9350611ab78185602086016112e6565b80840191505092915050565b6000611acf8284611a92565b915081905092915050565b7f4572726f723a204e465420616c72656164792065786973740000000000000000600082015250565b6000611b106018836112d5565b9150611b1b82611ada565b602082019050919050565b60006020820190508181036000830152611b3f81611b03565b9050919050565b7f4e487b7100000000000000000000000000000000000000000000000000000000600052601160045260246000fd5b6000611b8082611385565b9150611b8b83611385565b925082821015611b9e57611b9d611b46565b5b828203905092915050565b7f546f6b656e20646f6573206e6f74206578697374000000000000000000000000600082015250565b6000611bdf6014836112d5565b9150611bea82611ba9565b602082019050919050565b60006020820190508181036000830152611c0e81611bd2565b9050919050565b7f4572726f72202d20455243373231205472616e7366657220746f20746865207a60008201527f65726f2061646472657373000000000000000000000000000000000000000000602082015250565b6000611c71602b836112d5565b9150611c7c82611c15565b604082019050919050565b60006020820190508181036000830152611ca081611c64565b9050919050565b7f547279696e6720746f207472616e73666572206120746f6b656e20746865206160008201527f64647265737320646f6573206e6f74206973206f776e65720000000000000000602082015250565b6000611d036038836112d5565b9150611d0e82611ca7565b604082019050919050565b60006020820190508181036000830152611d3281611cf6565b9050919050565b6000611d4482611385565b9150611d4f83611385565b9250827fffffffffffffffffffffffffffffffffffffffffffffffffffffffffffffffff03821115611d8457611d83611b46565b5b828201905092915050565b7f4552433732313a206d696e74696e6720746f20746865207a65726f206164647260008201527f6573732e00000000000000000000000000000000000000000000000000000000602082015250565b6000611deb6024836112d5565b9150611df682611d8f565b604082019050919050565b60006020820190508181036000830152611e1a81611dde565b9050919050565b7f4552433732313a20746f6b656e20616c7265616479206d696e7465642e000000600082015250565b6000611e57601d836112d5565b9150611e6282611e21565b602082019050919050565b60006020820190508181036000830152611e8681611e4a565b905091905056fea2646970667358221220d15ccde2097513d4c967ed04fded43b61424b694402729aa63efd6b945211d3164736f6c634300080e0033",
  "immutableReferences": {},
  "source": "// SPDX-License-Identifier: MIT\r\npragma solidity ^0.8.0;\r\n\r\nimport \"./ERC721Connector.sol\";\r\n\r\ncontract ManifestNFT is ERC721Connector {\r\n    //array to store NFTs\r\n    string[] public mnfstNFTs;\r\n    mapping(string => bool) _mnfstNFTExists;\r\n\r\n    function mint(string memory _mnfstNFT) public {\r\n        require(!_mnfstNFTExists[_mnfstNFT], \"Error: NFT already exist\");\r\n        mnfstNFTs.push(_mnfstNFT);\r\n        uint256 _id = mnfstNFTs.length - 1;\r\n        _mint(msg.sender, _id);\r\n        _mnfstNFTExists[_mnfstNFT] = true;\r\n    }\r\n\r\n    constructor() ERC721Connector(\"manifestArt\", \"MNFSTART\") {}\r\n}\r\n",
  "sourcePath": "C:\\Users\\paulo\\Desktop\\Web Development\\Proyectos\\Nft Marketplace\\src\\contracts\\ManifestNFTContract.sol",
  "compiler": {
    "name": "solc",
    "version": "0.8.14+commit.80d49f37.Emscripten.clang"
  },
  "schemaVersion": "3.4.4",
  "updatedAt": "2022-05-19T17:14:33.046Z",
  "networkType": "ethereum",
  "devdoc": {
    "kind": "dev",
    "methods": {
      "supportsInterface(bytes4)": {
        "details": "Interface identification is specified in ERC-165. This function  uses less than 30,000 gas.",
        "params": {
          "interfaceID": "The interface identifier, as specified in ERC-165"
        },
        "returns": {
          "_0": "`true` if the contract implements `interfaceID` and  `interfaceID` is not 0xffffffff, `false` otherwise"
        }
      }
    },
    "version": 1
  },
  "userdoc": {
    "kind": "user",
    "methods": {
      "supportsInterface(bytes4)": {
        "notice": "Query if a contract implements an interface"
      }
    },
    "version": 1
  }
}